:020000040800F2
:100000007008002089010008910100089301000890
:100010009501000897010008990100080000000000
:100020000000000000000000000000009B0100082C
:100030009D010008000000009F010008A1010008C8
:10004000A3010008A3010008A3010008A301000800
:10005000A3010008A3010008A3010008A3010008F0
:10006000A3010008A3010008A3010008A3010008E0
:10007000A3010008A3010008A3010008A3010008D0
:10008000A3010008A3010008A3010008A3010008C0
:10009000A3010008A3010008A3010008A3010008B0
:1000A000A3010008A3010008A3010008A3010008A0
:1000B000A3010008A3010008A3010008A301000890
:1000C000A3010008A3010008A3010008A301000880
:1000D000A3010008E5040008A3010008A30100082B
:1000E000A3010008A3010008A301000800F002F822
:1000F00000F03AF80AA090E8000C82448344AAF188
:100100000107DA4501D100F02FF8AFF2090EBAE885
:100110000F0013F0010F18BFFB1A43F0010318473B
:10012000581E0000781E0000103A24BF78C878C11D
:10013000FAD8520724BF30C830C144BF04680C60ED
:10014000704700000023002400250026103A28BF35
:1001500078C1FBD8520728BF30C148BF0B60704739
:100160001FB51FBD10B510BD00F06EF81146FFF7AA
:10017000F7FF00F027FD00F08CF803B4FFF7F2FF63
:1001800003BC00F00BFD0000094880470948004708
:10019000FEE7FEE7FEE7FEE7FEE7FEE7FEE7FEE737
:1001A000FEE7FEE704480549054A064B7047000094
:1001B00085040008ED00000870020020700800208F
:1001C000700400207004002070474FF0000200B55A
:1001D000134694469646203922BFA0E80C50A0E86A
:1001E0000C50B1F12001BFF4F7AF090728BFA0E818
:1001F0000C5048BF0CC05DF804EB890028BF40F8E4
:10020000042B08BF704748BF20F8022B11F0804F25
:1002100018BF00F8012B7047704770477047704750
:1002200010B500F009F8006810BD10B5044600F0E4
:1002300003F8046010BD0000004870470C02002065
:10024000004870470C0200207546FFF7F9FFAE46E4
:1002500005006946534620F00700854618B020B5D2
:10026000FFF7A0FFBDE820404FF000064FF0000769
:100270004FF000084FF0000B21F00701AC46ACE84E
:10028000C009ACE8C009ACE8C009ACE8C0098D46BB
:10029000704710B50446AFF300802046BDE810401B
:1002A000FFF76BBFF0B597B006460F4615465821CD
:1002B00001A8FFF78AFF502D01DD17B0F0BD002126
:1002C00001AAE81C1154AA208DF804008DF805003D
:1002D0008DF806608DF80750002405E0395D201D7B
:1002E00001AA1154601CC4B2AC42F7DB00240AE03E
:1002F00001A9281D085C095D0844C1B201AA281D96
:100300001154601CC4B2281D8442F1DB002405E0B6
:1003100001A9085D00F034F8601CC4B2681D844275
:10032000F6DB00BFC9E72DE9F04794B08246884666
:1003300014461F4650216846FFF747FF002512E08C
:1003400004FB058900260AE009F10300801B007800
:10035000042101FB05610DF80100701CC6B2A64224
:10036000F2DB681CC5B297FBF4F0A842E8DC3A4621
:1003700069465046FFF796FF14B0BDE8F0870000CD
:1003800000BF0549098801F080010029F9D0024920
:10039000091D0880704700000038014010B500F0CA
:1003A00001F810BD0CB500200190009033480068A2
:1003B00040F480303149086000BF3048006800F4E4
:1003C000003000900198401C0190009818B90198E5
:1003D000B0F5A06FF1D12948006800F4003010B1E9
:1003E0000120009001E0002000900098012843D1F6
:1003F0002348006840F01000214908600846006862
:1004000020F0030008600846006840F00200086021
:100410001A484068194948600846406848600846DC
:10042000406840F4806048600846406820F47C10D2
:1004300048600846406840F4E81048600846006894
:1004400040F08070086000BF0C48006800F0007049
:100450000028F9D00948406820F0030007494860A7
:100460000846406840F00200486000BF034840680A
:1004700000F00C000828F9D10CBD0000001002406B
:100480000020024010B51348006840F001001149F7
:10049000086008464068104908400E494860084610
:1004A00000680E4908400B4908600846006820F4BF
:1004B000802008600846406820F4FE0048604FF441
:1004C0001F008860FFF76AFF4FF000600449086072
:1004D00010BD0000001002400000FFF8FFFFF6FE14
:1004E00008ED00E00E49098801F02001B1B10C4986
:1004F000091D0988C8B20B49098879B90A490988D0
:10050000B1F5007F0ADA08490A880988491C064BB8
:100510001980064988540521054A1180704700005A
:100520000038014000000020020000200C000020E4
:1005300004000020490050EAC12018BF04204A0DE1
:1005400018BF40F0010040F2FF72B2EB515F08BFEC
:1005500040F00200012808BF052070472DE9F74F41
:10056000144694B00021C4E902111599079121F0B5
:100570000045C9498D4206DC1599C4E9000117B050
:100580000020BDE8F08FC549DFF814A3A9423CDD87
:100590000799C44E0029C44FC44A1599534619DD22
:1005A00001F026F8554506D0C14AC24B01F020F8AB
:1005B000C4E900010AE04FF0D352BE4B01F018F835
:1005C00032463B4601F014F8C4E9000117B001209F
:1005D000BDE8F08F00F0A0FC554506D0B44AB54BFD
:1005E00000F09AFCC4E900010AE04FF0D352B14B8D
:1005F00000F092FC32463B4600F08EFCC4E900015C
:1006000017B04FF0FF30BDE8F08FAB49A942159904
:1006100078DB21F0004183468846A84AA84B00F0C9
:10062000DDFE0022A74B00F077FC00F07DFE099074
:1006300000F0A9FE06460F469C4A534600F0CEFE47
:1006400043465A4600F0C8FF80468A46984A994B6E
:100650003046394600F0C2FE2A0D01250B92424673
:10066000534600F0B9FF032DC4E9000139D00B98BF
:10067000C1F30A51401A05EB45111139814230DAB4
:100680009148C346784400EB0510CDF80CA00C90BF
:10069000D0E900233046394600F0A0FE02460B4662
:1006A000049106905846039900F0A2FF80468A46BE
:1006B00002460B465846039900F09AFF049B069A9F
:1006C00000F096FF83460C9803913946D0E9022347
:1006D000304600F083FE5A46039B00F089FF6D1CF4
:1006E000BDE707980028A2BF099817B0BDE8F08FB2
:1006F000616881F000416160099817B04042BDE82F
:10070000F08FFFE784461598C1F31301C0F30A5038
:10071000A0F2F5304FEA601800F01F06C6F1200085
:10072000139000200690079041F4801E05206D462E
:1007300076B1664A08EB00017A4452F8213002EBA8
:100740008101B3404A68139922FA01F1194305E087
:100750005F4908EB0002794451F82210A1FB0E27F3
:10076000A1FB0C131A449A4234BF0123002303EB6C
:10077000070A05EB8003D3E901B70F448F4234BF6A
:100780000121002193448B4411B1934502D903E028
:10079000934501D2012100E00021C3E901B7514492
:1007A00045F82010011EA0F10100C1DC0298059F50
:1007B00000F10050800F12900298DDE9035680008E
:1007C00000F0E1FD834628460D9100F0F3FD6FF047
:1007D0001D0201F0F8FACDE90E01304600F0EAFD05
:1007E0006FF03D0201F0EFFA80468A46384600F08D
:1007F000E1FD6FF05D0201F0E6FA0746424653461E
:10080000119100F089FBDDE90E2300F085FB5A46CB
:100810000D9B00F081FB00250E465A4628460D9B95
:1008200000F0E6FEDDE90E2300F0E2FE424653460C
:1008300000F0DEFE3A46119B00F0CEFEDFF898A0F5
:10084000244A534600F0CAFD07468846234A244BF3
:100850003146284600F0C2FD3A46434600F05CFBB4
:10086000074688464FF0A84253463146284600F0D6
:10087000B5FD3A46434600F04FFB159A12F0004F83
:1008800004D0129A81F0004152421292C4E9000150
:10089000129817B0BDE8F08FFB21E93F7CD90240E8
:1008A000FB21F93F7370032E8A19A33B00004054CB
:1008B0003163621A61B4D03DFB21394183C8C96DEF
:1008C000305FE43F0000E03F001800007C170000AC
:1008D0005E170000182D4454FB21F93D3326A61164
:1008E000460B113C2DE9FF4D21F0004807460C4610
:1008F000B8F1795F08DA00F017FD002801BF002089
:10090000324904B0BDE8F08D3A46234610461946F8
:1009100000F064FD054602462D480E460B460621B2
:10092000784400F05DF82A46334600F057FDDDE9D3
:10093000022382468B463846214600F04FFD04468E
:100940000F4652465B462846314600F047FD224698
:100950003B4600F04DFE07468A464FF0FF322846E0
:10096000314601F030FA1B4A90450ADA3A465346BE
:1009700000F03EFE04B00022BDE8F04D134B00F045
:100980002BBE154A4245A8BFA8F500154FF000043C
:10099000B8BF124D22462B4600F02AFE0646884676
:1009A00022462B460020094900F022FE04460D464F
:1009B0003A4653463046414600F01AFE04B02246FD
:1009C0002B46BDE8F04D00F007BE00000000F03FF0
:1009D000341500003333D33F0000E93F0000D23F1D
:1009E0002DE9F0414F1E00EBC7010446D1E900019B
:1009F00015461E4637F006020DD02A46334600F053
:100A0000EDFC7F1E04EBC703D3E9002300F084FA5A
:100A100037F00602F1D1022F25D0042F13D0062F74
:100A200018BFBDE8F0812A46334600F0D7FCD4E970
:100A30000A2300F071FA2A46334600F0CFFCD4E9CD
:100A4000082300F069FA2A46334600F0C7FCD4E9CF
:100A5000062300F061FA2A46334600F0BFFCD4E9D1
:100A6000042300F059FA2A46334600F0B7FCD4E9D3
:100A7000022300F051FA2A46334600F0AFFCD4E9D5
:100A80000023BDE8F04100F047BA00002DE9FF4D1A
:100A9000054621F0004084B00C46B0F1795F0BDAD6
:100AA0002846FFF747FD042808BF00F06FF82846E6
:100AB00008B02146BDE8F08D2A460B46104600F0EE
:100AC0008DFC06460F462A46234600F087FC8046EA
:100AD00026488A4632463B4605217844FFF780FF88
:100AE00083461098029160B3214A224B40465146FA
:100AF00000F074FCCDE900015A4640465146029B85
:100B000000F06CFC82468846DDE906014FF0FF32BA
:100B100001F059F95246434600F06AFD32463B4621
:100B200000F05CFCDDE9062300F062FDDDE9002356
:100B300000F05EFD08B02A462346BDE8F04D00F007
:100B40004BBD0B465A463046394600F047FC084A32
:100B5000084B00F0E1F94246534600F03FFC08B074
:100B60002A462346BDE8F04D00F0D6B972140000C5
:100B7000495555555555C5BF012201F024B90022EC
:100B800013461046114600F077BA0000024A0020D2
:100B9000110701F018B9000001FDFFFF014600BF79
:100BA00000207047002008E0002101E04A1C91B2BB
:100BB000B1F57A7FFADB421C90B2B0F57A7FF3DBB5
:100BC0007047000086B04FF0000A4FF4E13000F0AB
:100BD000A1F848E0504600F0F5FD0446224A234BB8
:100BE00000F09AF9064600F065F98246504600F09A
:100BF000E9FD044600F03EF8064600F05BF903907C
:100C0000504600F0DFFD804600F034F80646002232
:100C1000174B00F081F9044600F04CF9049050465F
:100C200000F0D0FD064600F025F804460022104BE7
:100C300000F0DEFC804600F03DF905906FF0010009
:100C4000009000200190022002900C23042203A9AE
:100C5000F120FFF768FB0C2304226946F220FFF71E
:100C600062FBFFF79FFFB5E79A9999999999B93F68
:100C70000000F03F00B5254B21F0004287B09A42BA
:100C800003DC0022134600922BE0214B9A4208D14C
:100C900040B94FF00100FFF7C8FAFFF770FF07B047
:100CA00000BD03DBFFF768FF07B000BD02AAFFF736
:100CB00055FC10F003014FF001000DD0012914D0B4
:100CC00002291AD00DF1080C9CE80F00FFF70AFE6C
:100CD00007B081F0004100BD0DF1080C00909CE8C8
:100CE0000F00FFF7D3FE07B000BD0DF1080C9CE824
:100CF0000F00FFF7F7FD07B000BD0DF1080C0090E5
:100D00009CE80F00FFF7C2FEE2E70000FB21E93F8D
:100D10000000F07F2DE9F05F04466048806940F0F4
:100D200004005E4988615E48006820F0F0005C497C
:100D300008600846006840F0B00008600846006897
:100D400020F4706008600846006840F400600860A5
:100D50005248806940F48040504988615148008879
:100D600020F480504F490880081D008820F440502E
:100D7000091D0880081F008840F00800091F08802E
:100D80000846008840F0040008800846008840F0CB
:100D900020000880200100F085FE80464146424840
:100DA00000F09EFD0546284600F05CFE86B2304607
:100DB00000F078FE8046294600F054FF07464FF6C3
:100DC000FF7000EA06164FF08341384600F07EFEC1
:100DD0008146304600F066FE8246494600F01EFD20
:100DE000804600F03FFE2F49091F0880252005227C
:100DF0004FF0020C4FF001081346C3F1070BBBF193
:100E0000040F02D94FF0040B01E0C3F1070BDA46DF
:100E100003F1040BBBF1070F02D24FF0000B01E00E
:100E2000A3F1030BD9464FF0010B0BFA0AFBABF110
:100E3000010B0BEA0C0B0BFA09FB4FF0010E0EFA3B
:100E400009FEAEF1010E0EEA080E4BEA0E0100BFDC
:100E5000002809DA0A074FEA126C144A00F00F035F
:100E60001B1F02F803C003E00A07130E104A1354B5
:100E700000BF252000F01F0201219140420992008D
:100E800002F1E022C2F8001100BF0648008840F4D9
:100E9000005004490880BDE8F09F000000100240A7
:100EA000040801400C3801404054894C18ED00E022
:100EB00000E400E021F00042A2F16052B2F5801F90
:100EC00001F0004328BFD2F17F6C0BD95FEA001C10
:100ED00043EAC20242EB507018BF704728BF20F0AF
:100EE00001007047B2F5801FBCBF184670474FEA3B
:100EF000410C1CF5001F02D2084600F0AEBE70B5D2
:100F000000F016FB00000089FFF7F6BF4FF000402D
:100F1000A0F580007047000010B591EA030F48BFAC
:100F200083F0004300F16C83841A71EB030C05D24B
:100F3000121943EB0C03001B61EB0C01DFF824E1F9
:100F40004FEA1154A4EB135C1EEA430F18BF9EEA4C
:100F5000445F73D023EA0E03DCF1200E21EA045132
:100F600043F4801332D322FA0CFE10EB0E0023FA66
:100F70000CFE41EB0E01CCF1200E03FA0EFE10EB3D
:100F80000E0051F10001B1F5801FCCF1200E32D2DC
:100F900001EB045112FA0EF2BDE8104058BF704741
:100FA000401C38BF5FEA420218BF7047002814BFD8
:100FB00020F0010041F100014FEA410313F5001F49
:100FC00038BF7047A1F1C04100F000BB012A43EBDC
:100FD0000302ACF1200CDCF11F0E32BF4FF0000E0B
:100FE00023FA0CF310EB030041EB0451B4EB115F57
:100FF000D0D0A1EB045101F5801149085FEA30001F
:1010000001EB04510ED350F1000038BF12FA0EFE6E
:1010100008D1BDE81040C9E7401C38BF5FEA420272
:10102000CAD1C3E7BDE810404FEA410313F5001FE2
:1010300038BF7047A1F1C04100F0C8BA9EEA445FD2
:1010400008D011EA5E0FBDE8104004BF01F0004176
:1010500000207047BDE8104070B500F069FA00BF8D
:1010600064FBBE3E0000E0FF02494FF0000000F0CC
:1010700078BE00BF0000F87F2DE9C04130B4DFF832
:10108000A0C23CEA111418BF3CEA131400F0EC8033
:1010900081EA03051CEA111444EAD57418BF1CEA5E
:1010A000131500F0C780A4EB05044FF0004545EA96
:1010B000C12145EAC32341EA505143EA525304F1A6
:1010C0007F74994204F500344FEAC0204FEAC222EF
:1010D00008BF904200F09C804FEA13650FF2401663
:1010E000765D4FEA134506FB05F7C7F1807706FBEF
:1010F00007F74FEAD737A7FB03687642C8F5803871
:10110000A7FB06CE38BFA8F1010807FB08E64FF0A1
:10111000000EA6FB028CE6FB03CEDCF1000CCEF148
:10112000004E38BFAEF1010EA6FB0C584FF0000781
:101130004FF00005E6FB0E87A1FB08C6A0FB07CE1B
:1011400016EB0E0645F10005E1FB076515F1E04ED3
:101150007EBFA4F580345FEA46066D4116F1800734
:1011600045F100054FEA17274FEA066647EA05678B
:10117000A6F1DE46B6F1805F4FEA15251FD9384645
:1011800024F0010C05EBC471BCF1FE6F01EB0C11F6
:1011900002D8F0BCBDE8008124425CBF01F5801E8E
:1011A0009EEAC47F02D4F0BCBDE80081244238D45A
:1011B000F0BCA1F1C041BDE8004100F007BA4FEA20
:1011C000D22242EA43524FEAD323A7FB02864FEAD8
:1011D000D02040EA415007FB03661EEA0E0F4FEA9B
:1011E000D12105FB026658BFA6EB0056B6EB0056B0
:1011F0004FEA520E4EEAC37E18EB0E0E56EB530E1C
:10120000BDD518EB02085E417F1C55F10005B6E71D
:101210004FF480154FF000074FF000064FF0000824
:10122000ADE7F0BC4FF0000001F1C04101F000411A
:10123000BDE8008111EA0C1F0CEA131500D00CE088
:1012400013EA0C1F00F025804FF00000F0BC81EA8B
:10125000030101F00041BDE80081F0BCBDE80041A0
:1012600081EA030100F0B2B9F0BCBDE8004170B5FD
:1012700000F05EF9097EFC3E00F007B881EA030148
:101280004FF0000001F00041704781EA030100F0D7
:101290009DB9F0BCBDE800414FF000002149704706
:1012A000FFFDFBF9F7F5F4F2F0EEEDEBE9E8E6E42B
:1012B000E3E1E0DEDDDBDAD8D7D5D4D3D1D0CFCDB2
:1012C000CCCBCAC8C7C6C5C4C2C1C0BFBEBDBCBBEB
:1012D000BAB9B8B7B6B5B4B3B2B1B0AFAEADACABE6
:1012E000AAA9A8A8A7A6A5A4A3A3A2A1A09F9F9EC0
:1012F0009D9C9C9B9A999998979796959594939372
:10130000929191908F8F8E8E8D8C8C8B8B8A898908
:10131000888887878685858484838382828181808B
:101320000000FF070000F87F4FEA41034FEA5353E4
:10133000A3F58063D3F11E03C8BFD3F1210C0CDDEC
:101340004FF0004242EAC12242EA505232FA03FC14
:101350008CEAE17CACEBE1707047102BC4BF00203D
:10136000704703F5787CBCF1FF3F04D06FF000427A
:1013700082EA2100704770B500F0DAF849922480C3
:1013800000207047F2E710F0004248BF4042B0FA38
:1013900080F310FA03F10AD0C3F11D0303F5806353
:1013A0004FEA415002EB035202EBD12170474FF05C
:1013B00000007047B0FA80F310FA03F10AD0C3F1CD
:1013C0001D0303F580634FEA41504FEA035202EBDD
:1013D000D12170474FF0000070470000DFF848C18E
:1013E00070B51CEA111E1EBF1CEA13159EEA0C0FF5
:1013F00095EA0C0F00F06F8081EA030423EA4C1396
:101400004EEAD47E21EA4C1141F4801143F480135A
:10141000AE44A1FB024CA0FB0365AEF17F7E361902
:1014200055EB0C05A1FB034C4CF10003A0FB021C87
:1014300016EB0C06654153F10003094218BF46F054
:10144000010613F4007F0BD14FEA03314FEA053058
:10145000340341EA155140EA16506FF003020AE0E6
:101460004FEAC3214FEAC520F40241EA555140EA50
:1014700056506FF0020202EB2E4201EB025585EA54
:10148000CE710AD05FEA440C18BF24F0004450F13A
:10149000000041F1000120EAD47040F2FE7C624578
:1014A00000D270BDA84214BF4FF080444FF04044BA
:1014B000002E08BF0024BEF1806FA8BFA1F1C0417B
:1014C000BDE8704080F282804FF0000001F1C04121
:1014D00001F0004170479EEA0C0F0CEA131518BF8B
:1014E00095EA0C0F06D04FF0000081EA030E0EF0D3
:1014F000004170BD00F01CF88900013E00F007B803
:1015000000F009B84FEA430C5FEA5C5C08D081EA5E
:10151000030100F05BB84FEA410C5FEA5C5CF6D176
:101520004FF00000014970470000FF070000F87FFE
:101530000EF1020E2EF0030E5EF8046B364205D457
:10154000012A43EB030515F5001F12D8012841EBD2
:10155000010C1CF5001F0CD80ED14FEAD17C15F5FB
:10156000001F0CEB4C0C0CF1020C08BF4CEBD37CB5
:1015700004E04FF0080C01E04FEAD37C0CEB4C0583
:1015800026FA05F606F00706B6F1040C06D20EEBB5
:10159000860CBDE870404CF0010C6047DFE80CF0B1
:1015A000090B02024FF000414FF00000A1F50021AD
:1015B00070BD19461046012851EB010418BFD4F53F
:1015C000001484BF002001F0004170BD0808A0F5A0
:1015D00000114FEA3101704791EA030F10B581F015
:1015E00000413FF5A1AC83F0004300F009B80000D2
:1015F00010B591EA030F48BF83F000433FF594AC68
:10160000841A71EB030C07D212198CF0004C43EBD7
:101610000C03001B61EB0C01DFF8A4E14FEA11544D
:10162000A4EB135C1EEA430F18BF9EEA445F00F070
:10163000B08023EA6E03524221EA0451C3EB6E03E9
:1016400038BF5B1EDCF1200E25D322FA0CFE10EB16
:101650000E0043FA0CFE41EB0E01CCF1200E03FA12
:101660000EFE10EB0E0051F10001CCF1200E29D43A
:1016700012FA0EF201EB0451BDE8104058BF70475A
:10168000401C1CBFB2F1004F704700280CBF491C22
:1016900020F00100704712EB020E43EB030218BF6B
:1016A0004FF0010E4EEA4202ACF1200CDCF11E0EAE
:1016B00054D943FA0CFE10EB0E0051F1FF31CCF17E
:1016C0001E0ED5D50EF1010E12FA0EFE404141EB71
:1016D000010101EB445C5FEA5C5C10D910EBDE7049
:1016E00001EB045138BFBEF1004FBDE8104018BFF8
:1016F000704700280CBF491C20F00100704730D211
:101700004FEAD42C11F5001124F400641BD0B1FA77
:1017100081F20B3AA41AA41ED2F12003914030FAB0
:1017200003F31943904001EBCC71002C01EB045101
:10173000BDE81040A8BF704701F1C0414FF0000064
:1017400001F000417047B0FA80F310FA03F100D1C4
:1017500010BDE41A173C4805C90AE4E701EB04513F
:1017600010BD491001EB0451BDE810404FEA3000B4
:1017700002E04FF0000170474A0008BF0042F8D075
:10178000B2F5001F28BF704701F000414FF0000084
:1017900070479EEA445F07D011EA5E0FBDE8104033
:1017A00004BF002100207047BDE8104070B5FFF76E
:1017B000BFFE00BF40DFF63E83F000411046704799
:1017C0000000E0FF43004FEAD30C4FEA3C0C4340DB
:1017D0001FBF40070CF1605113F0FE4F70471CF023
:1017E000006F03D100200CF0004170470CF0004363
:1017F00043EA507010B540EACC0000F0E8F900BFB1
:10180000000000924FEA0001FFF7E0BE4FF00041F8
:101810004FF00000A1F500217047000090EA010F91
:1018200048BF81F0004100F12E82421A3CBF801A6D
:1018300089184FEAD0524FF07F4C1CEA410FA2EBBF
:10184000D15318BF9CEA026F00F03B804FF0004C70
:101850004CEA00204CEA012121FA03FC10EB0C0CAD
:101860001ED202F1FF325FEA1C2040EBC25038BFAB
:1018700070471CF07F0F4FEA400C18BFBCF17F4F40
:1018800038BF7047C3F12003994008BF20F0010022
:10189000BCF17F4F38BF7047A0F1C04000F0DDB908
:1018A0004FEA3C00000A40EBC25028BF1CF0FF0F7B
:1018B0004FEA400CE6D018BFBCF17F4F38BF7047ED
:1018C000EAE79CEA026F05D010EA5C0F08BF00F05F
:1018D0000040704710B500F07AF900BF64FBBE3ECF
:1018E0004FF47F0C1CEAD0121EBF1CEAD11392EAFF
:1018F0000C0F93EA0C0F00F0858090EA010F48BFAF
:1019000042F4807240F4000C41F400002CF07F415E
:1019100020F07F4000B58142A2EB03020FF2081CC9
:10192000ACEB504EC0F100009EF800E04FEA4E0EC6
:1019300000FB0EFC38BF49004FEA2C1C02F5FA02EE
:101940000CFB0EF34FEACE1E4FEA112C4FEAC121D9
:101950000EEB635E42EB22420EFB0CFC4FEA1C5383
:1019600000FB03114FEA112C4FEA01310EFB0CFC76
:101970004FEADC4C00FB0C11C14228BF09184CEBAC
:1019800003335DF804EB10EB410143EBC250B2F5B9
:101990007C0F38BF704729D512F0F00F1CBF00F143
:1019A000C04000F0004070470081828384858687B4
:1019B00088898B8C8D8E8F919293959697999A9C0E
:1019C0009D9FA0A2A3A5A7A8AAACAEB0B2B3B5B77D
:1019D000B9BCBEC0C2C5C7C9CCCED1D4D7D9DCDF53
:1019E000E2E6E9ECF0F3F7FAFE0000004FEA400C03
:1019F0000CF1807CBCF17E4F28BF7047B0F1C04035
:101A000000F02BB990EA010F0CEAD11348BF42F461
:101A10008072624538BF634507D213F47F0F16D03A
:101A200080EA010000F00040704710B500F0CFF8E8
:101A3000097EFC3E00F005B880EA010000F000409D
:101A4000704780EA010000F0004000F006B912F48F
:101A50007F0F04BF0248704780EA010000F0FDB824
:101A60000000C07FC10DD1F19E0206DB4FEA0023CA
:101A700043F0004323FA02F07047004207D54FEAD3
:101A80004001B1F1FE4F02D24FF00000704710B597
:101A900000F09DF849922480002070476FEA2000F2
:101AA00070470000B0FA80F310FA03F2C3F19D030F
:101AB0000AD0D90501EB1220530638BF704700F158
:101AC000010008BF20F00100704700004FF47F0CB8
:101AD0001CEAD0121EBF1CEAD11392EA0C0F93EA43
:101AE0000C0F00F0478090EA010F48BF42F480726B
:101AF0004FF0004C4CEA00204CEA012102EB0302BB
:101B0000A0FB0113A2F50002002918BF43F0010356
:101B10005B0028BF4FEA330342EB22425FEA132CFB
:101B20004CEBC2502EBFBCEB436FB2F57C0F70473D
:101B30004FEA036CBCF1004F08BF20F00100B2F582
:101B40007C0F38BF70470BD582F0FF0212F5803F43
:101B5000C8BF704700F1C040D8BF00F000407047D8
:101B600000F5000C5FEA4C0C48BF7047B0F1C04074
:101B700000F073B890EA010F0CEAD11348BF42F4A9
:101B80008072624538BF634504D280EA010000F0EC
:101B90000040704710B500F01AF800BF8900013E00
:101BA00000F007B800F009B85FEA410C5FEA1C6C6E
:101BB00008D080EA010000F050B85FEA400C5FEA0C
:101BC0001C6CF6D14FF00040A0F5800070470EF17C
:101BD000020E2EF0030E5EF8044B244204D44FEAAA
:101BE0004102B2F17F4F11D84FEA4003B3F17F4F6A
:101BF0000CD80ED14FEAD07CB2F17F4F0CEB4C0CDD
:101C00000CF1020C08BF4CEBD17C04E04FF0080C47
:101C100001E04FEAD17C0CEB4C0324FA03F404F00E
:101C20000704B4F1040C06D20EEB840CBDE810409E
:101C30004CF0010C6047DFE80CF0070802024FF09F
:101C40000040A0F5800010BD0846420018BFD2F148
:101C5000807288BF00F0004010BDFF2141EAD050E3
:101C6000C005704780F0004090EA010F7FF5DDADC0
:101C700081F0004100F007B890EA010F48BF81F001
:101C800000413FF5D2AD421A04D882F00042A0EBE9
:101C9000020011444FEAD0524FF07F4C1CEA410F32
:101CA000A2EBD15318BF9CEA026F4AD04FF0004C10
:101CB0004CEA00204CEA012121FA03FCB0EB0C0CA9
:101CC0000FD412F0FE0F36D05FEA4C001DD5001283
:101CD00040EBC25038BF70471CF03F0F18BF704731
:101CE0000BE0A2F101025FEA1C2040EBC25038BFBA
:101CF00070471CF07F0F18BF7047C3F12003994055
:101D000014BF401E20F00100704780084FEA1223E4
:101D100008BF7047B0FA80FCA2EB0C02CCF1280C93
:101D200060FA0CF093EA122F04BF00EBC250704728
:101D30004FEAC3707047130A5FEADC1008BF7047B0
:101D4000F6E79CEA026F04D010EA5C0F08BF00209F
:101D5000704710B5FFF73BFF40DFF63E81F00040D3
:101D600070470CF00F03092B08BF082000F05980C2
:101D70000A2B0BD0082B18BF704708BF1CF0400F70
:101D80000AD04FF000004FF0000170471CF0400FE8
:101D900018BF4FF0004070471CF0100F08D020F023
:101DA000704300F07F4242EAD3014FEA437070472C
:101DB00000F0604021F07F4242EA000201F07F40E3
:101DC00040EA727070474FF0FF0C4CF4E06C1CEA74
:101DD00011531CBF9CEA030C9445C2BFDA4201EBCD
:101DE00002517047002B0DD0BCF1000F0FD0002A1C
:101DF00001F00041A4BF41F0E04141F07F614FF0AC
:101E00000000704701F000414FF00000704750EAB9
:101E100001334FF09B0C18BF4CF0806C7FF424A969
:101E200070471CF4801F11D01CF4E02F03D06FEA20
:101E3000CC31490070474FF04050EFF3008222F060
:101E4000704242EA000282F3008870474FF00000BF
:101E500070470000000000004C5555555555A53FF2
:101E60007751C1166CC156BF9015CB19A001FA3E2F
:101E7000AD529C804F7E92BEC4B1B4BD9EEE213E59
:101E8000D43888BEE9FAA8BD00004054FB21F93FD0
:101E90003163621A61B4D03D0000601A61B4D03D74
:101EA0007370032E8A19A33B0000002E8A19A33BEE
:101EB000C14920259A837B39000000000000000002
:101EC0006E83F9A22915444ED15727FCC0DD34F5A5
:101ED000999562DB4190433CAB6351FE61C5BBDE2B
:101EE0003A6E24B7E0D24D42EA2E49061C92D1093F
:101EF0001CEB1DFE3EA729B1F53582E88444BB2EBC
:101F000026709CE9417E5FB439D69139F439538308
:101F10008B5F849C3B28F9BDFF97F81F0F9805DE67
:101F20008B112FEF1F6D0A5ACF7E366DB709CB2765
:101F3000663F464F2DEA5F9EC7BA27757BF1E5EBFA
:101F4000F739073DEA92528AB15FFB6B085D8D1F3E
:101F5000A6F810111111813FD561C119A0012ABF46
:101F60007DFEB157E31DC73EEB9C2B8AE6E55ABECA
:101F70007CD5CF5A3AD9E53D981F000800000020D3
:101F80000C00000028010008A41F00080C0000201D
:101F90006408000044010008000000000000000088
:041FA000000000003D
:04000005080000ED02
:00000001FF
